:100000000C9446000C9465000C9465000C946500FB
:100010000C9465000C9465000C9465000C946500CC
:100020000C9465000C9465000C9465000C946500BC
:100030000C9465000C94FD010C9465000C94650013
:100040000C9465000C9465000C9465000C9465009C
:100050000C9465000C9465000C9465000C9465008C
:100060000C9465000C9465000C9465000C9465007C
:100070000C9465000C9465000C9465000C9465006C
:100080000C9465000C9465000C94650011241FBE4F
:10009000CFEFD0E4DEBFCDBF11E0A0E0B1E0EEEEE7
:1000A000F7E000E00BBF02C007900D92A231B1074C
:1000B000D9F711E0A2E1B1E001C01D92AB31B10767
:1000C000E1F70E94CB030C94F5030C940000CF934E
:1000D000DF93CDB7DEB781E00E948C00DF91CF9136
:1000E0000895CF93DF93CDB7DEB784E690E00E940A
:1000F0002C0188E30E948C0086E00E948C008FE037
:100100000E948C0081E00E948C008AE090E00E94B6
:100110002C01DF91CF910895CF93DF931F92CDB73C
:10012000DEB789838BE290E02BE230E0F901208199
:100130002F7BFC01208388E290E02981FC01208351
:100140008BE290E02BE230E0F90120812068FC0195
:10015000208300008BE290E02BE230E0F901208167
:100160002F77FC01208382E090E00E942C010F9009
:10017000DF91CF910895CF93DF931F92CDB7DEB774
:1001800089838BE290E02BE230E0F901208120644A
:10019000FC01208388E290E02981FC0120838BE22E
:1001A00090E02BE230E0F90120812068FC012083FF
:1001B00000008BE290E02BE230E0F90120812F7704
:1001C000FC01208381E090E00E942C010F90DF91E0
:1001D000CF910895CF93DF9300D000D0CDB7DEB795
:1001E0008A837C836B830E9467008A81898311C024
:1001F000898191E0980F99830E9416018B819C81DF
:100200009C012F5F3F4F3C832B83FC0180810E9428
:10021000BB008B819C81FC018081882349F70F9072
:100220000F900F900F90DF91CF910895CF93DF93B0
:100230001F92CDB7DEB789838981813128F4898106
:1002400081580E948C0004C0898181550E948C00D5
:100250000F90DF91CF910895CF93DF9300D000D01E
:1002600000D0CDB7DEB79E838D831A82198214C069
:100270001C821B8206C000008B819C8101969C839E
:100280008B838B819C81873023E09207A4F3898143
:100290009A8101969A83898329813A818D819E81F1
:1002A000281739072CF326960FB6F894DEBF0FBE39
:1002B000CDBFDF91CF910895CF93DF9300D01F92F0
:1002C000CDB7DEB789837B836A8389818A3031F435
:1002D0008A819B81BC018DE00E945C0180EC90E0F2
:1002E000FC018081882F90E0807299270097B1F3FC
:1002F00086EC90E02981FC01208380E090E00F9063
:100300000F900F90DF91CF910895CF93DF9300D09E
:1003100000D0CDB7DEB769837A838B839C838981D4
:100320009A81AB81BC8180930E0190930F01A093C1
:100330001001B093110180910E0190910F01A091D5
:100340001001B09111018093130190931401A093B7
:100350001501B09316010F900F900F900F90DF9141
:10036000CF910895CF93DF93CDB7DEB781E890E0CA
:100370002BE0FC01208388E890E02DE730E0FC01D1
:10038000318320838FE690E022E0FC01208384E823
:1003900090E0FC011182108280910E0190910F017A
:1003A000A0911001B0911101809313019093140159
:1003B000A0931501B09316018FE590E02FE530E092
:1003C000F90120812068FC012083DF91CF910895FD
:1003D000CF93DF93CDB7DEB781E890E0FC011082C8
:1003E000DF91CF910895CF93DF93CDB7DEB781E052
:1003F00080931201DF91CF9108951F920F92009088
:100400005F000F92112400905B000F922F933F9397
:100410004F935F936F937F938F939F93AF93BF930C
:10042000EF93FF93CF93DF93CDB7DEB780911301A6
:1004300090911401A0911501B09116010197A109A5
:10044000B1098093130190931401A0931501B09307
:1004500016018091130190911401A0911501B091A2
:1004600016010097A105B10591F40E94F301809156
:100470000E0190910F01A0911001B0911101809394
:10048000130190931401A0931501B0931601DF910D
:10049000CF91FF91EF91BF91AF919F918F917F91FC
:1004A0006F915F914F913F912F910F9000925B0060
:1004B0000F9000925F000F901F901895CF93DF93DD
:1004C000CDB7DEB780911801909119018230910566
:1004D00009F46DC08330910530F4009769F08130E4
:1004E0009105B1F02AC18330910509F483C08430AD
:1004F000910509F4A7C021C181E0809317011092F2
:100500001A0181E090E090931901809318011AC1BB
:1005100080E290E0FC018081882F90E08170992733
:10052000009739F482E090E09093190180931801CC
:100530003DC080E290E0FC018081882F90E08170D6
:100540009927009799F180911701843049F480919F
:10055000170186958093170181E080931A011FC0CF
:1005600080911701823081F480911A01882331F043
:100570008091170186958093170111C08091170112
:10058000880F809317010BC080911701813039F4D7
:1005900080911701880F8093170110921A0181E052
:1005A00090E09093190180931801CCC0CBC080E2F9
:1005B00090E0FC018081882F90E08170992700975E
:1005C00039F083E090E0909319018093180111C0F5
:1005D00080E290E0FC018081882F90E08170992773
:1005E000009739F482E090E090931901809318010C
:1005F000A9C0A8C080E290E0FC018081882F90E033
:1006000081709927009761F481E08093170110921F
:100610001A0184E090E0909319018093180111C0B1
:1006200080E290E0FC018081882F90E08170992722
:10063000009739F083E090E09093190180931801BE
:1006400081C080C080E290E0FC018081882F90E032
:1006500081709927009799F180911701843049F4AE
:100660008091170186958093170181E080931A018C
:100670001FC080911701823081F480911A01882374
:1006800031F08091170186958093170111C08091F8
:100690001701880F809317010BC0809117018130DB
:1006A00039F480911701880F8093170110921A0175
:1006B00081E090E090931901809318013DC080E2A1
:1006C00090E0FC018081882F90E08170992700974D
:1006D00099F580911701843049F48091170186952E
:1006E0008093170181E080931A011FC08091170148
:1006F000823081F480911A01882331F080911701B2
:1007000086958093170111C080911701880F8093FF
:1007100017010BC080911701813039F480911701C6
:10072000880F8093170110921A0184E090E0909353
:1007300019018093180106C005C01092190110928A
:1007400018010000809118019091190182309105E3
:10075000E1F08330910520F48130910541F018C01B
:1007600083309105A1F08430910541F011C085E2FC
:1007700090E020911701FC0120830AC085E290E0FF
:1007800020911701FC01208303C0000001C000007C
:10079000DF91CF910895CF93DF93CDB7DEB781E29C
:1007A00090E0FC01108282E290E02FEFFC012083B8
:1007B00084E290E02FEFFC01208385E290E0FC01D1
:1007C00010826CE271E080E090E00E9485010E945E
:1007D000B201109217010E945E0200008091120186
:0E07E0008823E1F310921201F6CFF894FFCFB8
:1007EE0000000002000000005C010000000001009B
:0207FE000000F9
:00000001FF
