:100000000C9446000C9465000C9465000C946500FB
:100010000C9465000C9465000C9465000C946500CC
:100020000C9465000C9465000C9465000C946500BC
:100030000C9465000C94FD010C9465000C94650013
:100040000C9465000C9465000C9465000C9465009C
:100050000C9465000C9465000C9465000C9465008C
:100060000C9465000C9465000C9465000C9465007C
:100070000C9465000C9465000C9465000C9465006C
:100080000C9465000C9465000C94650011241FBE4F
:10009000CFEFD0E4DEBFCDBF11E0A0E0B1E0EEE3F2
:1000A000FDE000E00BBF02C007900D92A231B10746
:1000B000D9F711E0A2E1B1E001C01D92AD31B10765
:1000C000E1F70E9454060C949D060C940000CF9317
:1000D000DF93CDB7DEB781E00E948C00DF91CF9136
:1000E0000895CF93DF93CDB7DEB784E690E00E940A
:1000F0002C0188E30E948C0086E00E948C008FE037
:100100000E948C0081E00E948C008AE090E00E94B6
:100110002C01DF91CF910895CF93DF931F92CDB73C
:10012000DEB789838BE290E02BE230E0F901208199
:100130002F7BFC01208388E290E02981FC01208351
:100140008BE290E02BE230E0F90120812068FC0195
:10015000208300008BE290E02BE230E0F901208167
:100160002F77FC01208382E090E00E942C010F9009
:10017000DF91CF910895CF93DF931F92CDB7DEB774
:1001800089838BE290E02BE230E0F901208120644A
:10019000FC01208388E290E02981FC0120838BE22E
:1001A00090E02BE230E0F90120812068FC012083FF
:1001B00000008BE290E02BE230E0F90120812F7704
:1001C000FC01208381E090E00E942C010F90DF91E0
:1001D000CF910895CF93DF9300D000D0CDB7DEB795
:1001E0008A837C836B830E9467008A81898311C024
:1001F000898191E0980F99830E9416018B819C81DF
:100200009C012F5F3F4F3C832B83FC0180810E9428
:10021000BB008B819C81FC018081882349F70F9072
:100220000F900F900F90DF91CF910895CF93DF93B0
:100230001F92CDB7DEB789838981813128F4898106
:1002400081580E948C0004C0898181550E948C00D5
:100250000F90DF91CF910895CF93DF9300D000D01E
:1002600000D0CDB7DEB79E838D831A82198214C069
:100270001C821B8206C000008B819C8101969C839E
:100280008B838B819C81873023E09207A4F3898143
:100290009A8101969A83898329813A818D819E81F1
:1002A000281739072CF326960FB6F894DEBF0FBE39
:1002B000CDBFDF91CF910895CF93DF9300D01F92F0
:1002C000CDB7DEB789837B836A8389818A3031F435
:1002D0008A819B81BC018DE00E945C0180EC90E0F2
:1002E000FC018081882F90E0807299270097B1F3FC
:1002F00086EC90E02981FC01208380E090E00F9063
:100300000F900F90DF91CF910895CF93DF9300D09E
:1003100000D0CDB7DEB769837A838B839C838981D4
:100320009A81AB81BC8180930E0190930F01A093C1
:100330001001B093110180910E0190910F01A091D5
:100340001001B09111018093130190931401A093B7
:100350001501B09316010F900F900F900F90DF9141
:10036000CF910895CF93DF93CDB7DEB781E890E0CA
:100370002BE0FC01208388E890E02DE730E0FC01D1
:10038000318320838FE690E022E0FC01208384E823
:1003900090E0FC011182108280910E0190910F017A
:1003A000A0911001B0911101809313019093140159
:1003B000A0931501B09316018FE590E02FE530E092
:1003C000F90120812068FC012083DF91CF910895FD
:1003D000CF93DF93CDB7DEB781E890E0FC011082C8
:1003E000DF91CF910895CF93DF93CDB7DEB781E052
:1003F00080931201DF91CF9108951F920F92009088
:100400005F000F92112400905B000F922F933F9397
:100410004F935F936F937F938F939F93AF93BF930C
:10042000EF93FF93CF93DF93CDB7DEB780911301A6
:1004300090911401A0911501B09116010197A109A5
:10044000B1098093130190931401A0931501B09307
:1004500016018091130190911401A0911501B091A2
:1004600016010097A105B10591F40E94F301809156
:100470000E0190910F01A0911001B0911101809394
:10048000130190931401A0931501B0931601DF910D
:10049000CF91FF91EF91BF91AF919F918F917F91FC
:1004A0006F915F914F913F912F910F9000925B0060
:1004B0000F9000925F000F901F901895CF93DF93DD
:1004C000CDB7DEB780911801909119018230910566
:1004D00009F4CEC08330910530F4009789F0813063
:1004E000910571F18DC38430910509F423C28430E4
:1004F000910508F46EC18530910509F45CC280C392
:1005000087E08093170185E290E020911701FC01BC
:10051000208380911701805D80931A010E946700FB
:1005200081E00E94160180911A010E94BB00109286
:100530001C0181E090E0909319018093180165C33C
:1005400080E290E0FC018081882F90E08370992701
:100550008230910521F5809117018930C9F0809191
:1005600017018F5F8093170185E290E020911701BA
:10057000FC01208380911701805D80931A010E9405
:10058000670081E00E94160180911A010E94BB0061
:1005900082E090E0909319018093180168C080E296
:1005A00090E0FC018081882F90E083709927813052
:1005B000910521F5809117018823C9F080911701D9
:1005C00081508093170185E290E020911701FC0192
:1005D000208380911701805D80931A010E9467003B
:1005E00081E00E94160180911A010E94BB0083E005
:1005F00090E0909319018093180139C080E290E057
:10060000FC018081882F90E0837099270097E9F49E
:100610001092170185E290E020911701FC012083E0
:1006200080911701805D80931A010E94670081E02C
:100630000E94160180911A010E94BB0084E090E0A4
:10064000909319018093180112C080E290E0FC01A0
:100650008081882F90E0837099278330910539F449
:1006600081E090E09093190180931801CEC2CDC231
:1006700080E290E0FC018081882F90E083709927D0
:100680008330910549F410921C0181E090E0909331
:100690001901809318019CC080E290E0FC018081E8
:1006A000882F90E0837099270097F9F41092170132
:1006B00085E290E020911701FC01208380911701D1
:1006C000805D80931A010E94670081E00E941601FC
:1006D00080911A010E94BB0010921C0184E090E0FE
:1006E000909319018093180173C080E290E0FC019F
:1006F0008081882F90E0837099278130910531F5B2
:10070000809117018823C9F080911701815080934F
:10071000170185E290E020911701FC012083809170
:100720001701805D80931A010E94670081E00E949A
:10073000160180911A010E94BB0010921C0183E0F7
:1007400090E0909319018093180142C080E290E0FC
:10075000FC018081882F90E0837099278230910579
:10076000B9F590911C018DEC989F812D11248695EF
:1007700086958695880F282F220F220F820FF92F3A
:10078000F81B8F2F8823E9F4809117018930C9F075
:10079000809117018F5F8093170185E290E020918F
:1007A0001701FC01208380911701805D80931A015D
:1007B0000E94670081E00E94160180911A010E9448
:1007C000BB0082E090E090931901809318011DC254
:1007D0001CC280E290E0FC018081882F90E0837051
:1007E00099278330910549F410921C0181E090E033
:1007F00090931901809318019CC080E290E0FC0165
:100800008081882F90E0837099270097F9F41092E7
:10081000170185E290E020911701FC0120831092DE
:100820001C0180911701805D80931A010E9467006E
:1008300081E00E94160180911A010E94BB0084E0B1
:1008400090E0909319018093180173C080E290E0CA
:10085000FC018081882F90E0837099278230910578
:1008600031F5809117018930C9F0809117018F5FB0
:100870008093170185E290E020911701FC0120830D
:1008800080911701805D80931A010E94670081E0CA
:100890000E94160180911A010E94BB0010921C0157
:1008A00082E090E0909319018093180142C080E2A9
:1008B00090E0FC018081882F90E08370992781303F
:1008C0009105B9F590911C018DEC989F812D112413
:1008D000869586958695880F282F220F220F820FE6
:1008E000F92FF81B8F2F8823E9F4809117018823B3
:1008F000C9F08091170181508093170185E290E043
:1009000020911701FC01208380911701805D809365
:100910001A010E94670081E00E94160180911A016D
:100920000E94BB0083E090E090931901809318012E
:100930006CC16BC180E290E0FC018081882F90E067
:10094000837099278330910539F481E090E090938A
:100950001901809318012EC080E290E0FC01808193
:10096000882F90E0837099278230910559F080E2BA
:1009700090E0FC018081882F90E08370992781307E
:10098000910539F485E090E0909319018093180166
:1009900011C080E290E0FC018081882F90E083709C
:1009A0009927009739F484E090E09093190180939F
:1009B00018012BC12AC180E290E0FC018081882FC0
:1009C00090E0837099278330910549F410921C01BF
:1009D00081E090E0909319018093180110C180E2AA
:1009E00090E0FC018081882F90E083709927009728
:1009F000F9F41092170185E290E020911701FC01B3
:100A0000208310921C0180911701805D80931A0150
:100A10000E94670081E00E94160180911A010E94E5
:100A2000BB0084E090E09093190180931801E7C027
:100A300080911B01282F30E080E290E0FC01808152
:100A4000882F90E0837099272817390709F455C03B
:100A500080911B01813031F5809117018930D9F0E7
:100A6000809117018F5F8093170185E290E02091BC
:100A70001701FC01208310921C0180911701805DF9
:100A800080931A010E94670081E00E941601809104
:100A90001A010E94BB0082E090E0909319018093BC
:100AA0001801ADC080911B01823009F0A8C080916F
:100AB00017018823D9F08091170181508093170185
:100AC00085E290E020911701FC01208310921C0127
:100AD00080911701805D80931A010E94670081E078
:100AE0000E94160180911A010E94BB0083E090E0F1
:100AF000909319018093180188C080911B01282FC1
:100B000030E080E290E0FC018081882F90E08370EB
:100B100099272817390709F072C080911B0182308C
:100B200099F580911701893009F462C090911C01F8
:100B30008DEC989F812D1124869586958695880F3A
:100B4000282F220F220F820FF92FF81B8F2F8823B7
:100B500009F04EC0809117018F5F8093170185E2E5
:100B600090E020911701FC01208380911701805DA6
:100B700080931A010E94670081E00E941601809113
:100B80001A010E94BB0034C080911B01813081F5A5
:100B900080911701882361F190911C018DEC989F41
:100BA000812D1124869586958695880F282F220FF2
:100BB000220F820FF92FF81B8F2F8823C9F4809101
:100BC000170181508093170185E290E02091170171
:100BD000FC01208380911701805D80931A010E949F
:100BE000670081E00E94160180911A010E94BB00FB
:100BF00085E090E0909319018093180106C005C02C
:100C00001092190110921801000080911801909122
:100C1000190183309105F9F08430910538F4813061
:100C20009105E1F18230910541F03BC0843091059E
:100C3000B9F185309105E9F034C080911C018F3FF6
:100C400031F080911C018F5F80931C012AC086E0E7
:100C500080931C0126C080911C018F3F31F0809150
:100C60001C018F5F80931C011CC086E080931C01D7
:100C700018C080911C018F3F31F080911C018F5F63
:100C800080931C0103C086E080931C0180E290E009
:100C9000FC018081837080931B0103C0000001C0B0
:100CA0000000DF91CF910895CF93DF93CDB7DEB7EA
:100CB00081E290E0FC01108282E290E02FEFFC01E3
:100CC000208384E290E02FEFFC01208385E290E016
:100CD000FC01108287E290E02FEFFC01208388E284
:100CE00090E0FC0110828AE290E02FEFFC0120836B
:100CF0008BE290E0FC01108287E080931A010E9451
:100D0000710081E00E94160187E00E94BB0064E64A
:100D100070E080E090E00E9485010E94B201109294
:100D20001901109218010E945E02000080911201C8
:0E0D30008823E1F310921201F6CFF894FFCF62
:100D3E0000000002000000005C0100000000010045
:020D4E000000A3
:00000001FF
