:100000000C944D000C946C000C946C000C946C00DF
:100010000C946C000C946C000C946C000C946C00B0
:100020000C946C000C946C000C946C000C946C00A0
:100030000C946C000C9404020C946C000C946C00F6
:100040000C946C000C946C000C946C000C946C0080
:100050000C946C000C946C000C946C000C946C0070
:100060000C946C000C946C000C946C000C946C0060
:100070000C946C000C946C000C946C000C946C0050
:100080000C946C000C946C000C946C007F02960233
:10009000240347036F03EA030D0411241FBECFEFAF
:1000A000D0E4DEBFCDBF11E0A0E0B1E0E2E8F9E0CE
:1000B00000E00BBF02C007900D92AC31B107D9F739
:1000C00011E0ACE1B1E001C01D92A732B107E1F748
:1000D0000E9478040C94BF040C940000CF93DF932B
:1000E000CDB7DEB781E00E949300DF91CF910895F4
:1000F000CF93DF93CDB7DEB784E690E00E94330163
:1001000088E30E94930086E00E9493008FE00E94A3
:10011000930081E00E9493008AE090E00E94330106
:10012000DF91CF910895CF93DF931F92CDB7DEB7C4
:1001300089838BE290E02BE230E0F90120812F7B74
:10014000FC01208388E290E02981FC0120838BE27E
:1001500090E02BE230E0F90120812068FC0120834F
:1001600000008BE290E02BE230E0F90120812F7754
:10017000FC01208382E090E00E9433010F90DF9128
:10018000CF910895CF93DF931F92CDB7DEB78983C8
:100190008BE290E02BE230E0F90120812064FC0149
:1001A000208388E290E02981FC0120838BE290E0AB
:1001B0002BE230E0F90120812068FC01208300005F
:1001C0008BE290E02BE230E0F90120812F77FC01F7
:1001D000208381E090E00E9433010F90DF91CF9166
:1001E0000895CF93DF9300D000D0CDB7DEB78A83D8
:1001F0007C836B830E946E008A81898311C0898110
:1002000091E0980F99830E941D018B819C819C0134
:100210002F5F3F4F3C832B83FC0180810E94C200F3
:100220008B819C81FC018081882349F70F900F907E
:100230000F900F90DF91CF910895CF93DF931F928E
:10024000CDB7DEB789838981813128F489818158CE
:100250000E94930004C0898181550E9493000F90F1
:10026000DF91CF910895CF93DF9300D000D000D0DD
:10027000CDB7DEB79E838D831A82198214C01C828B
:100280001B8206C000008B819C8101969C838B831E
:100290008B819C81873023E09207A4F389819A8126
:1002A00001969A83898329813A818D819E812817BD
:1002B00039072CF326960FB6F894DEBF0FBECDBFDC
:1002C000DF91CF910895CF93DF9300D01F92CDB7E8
:1002D000DEB789837B836A8389818A3031F48A819E
:1002E0009B81BC018DE00E94630180EC90E0FC01E9
:1002F0008081882F90E0807299270097B1F386EC77
:1003000090E02981FC01208380E090E00F900F9025
:100310000F90DF91CF910895CF93DF9300D000D05D
:10032000CDB7DEB769837A838B839C8389819A8179
:10033000AB81BC8180930E0190930F01A0931001BB
:10034000B093110180910E0190910F01A0911001C5
:10035000B091110180931D0190931E01A0931F0184
:10036000B09320010F900F900F900F90DF91CF91DD
:100370000895CF93DF93CDB7DEB781E890E02BE00F
:10038000FC01208388E890E02DE730E0FC01318318
:1003900020838FE690E022E0FC01208384E890E057
:1003A000FC011182108280910E0190910F01A091A9
:1003B0001001B091110180931D0190931E01A09333
:1003C0001F01B09320018FE590E02FE530E0F901A7
:1003D00020812068FC012083DF91CF910895CF9385
:1003E000DF93CDB7DEB781E890E0FC011082DF91AA
:1003F000CF910895CF93DF93CDB7DEB781E080939F
:100400001C01DF91CF9108951F920F9200905F0021
:100410000F92112400905B000F922F933F934F9304
:100420005F936F937F938F939F93AF93BF93EF935C
:10043000FF93CF93DF93CDB7DEB780911D019091ED
:100440001E01A0911F01B09120010197A109B109DE
:1004500080931D0190931E01A0931F01B093200172
:1004600080911D0190911E01A0911F01B09120016A
:100470000097A105B10591F40E94FA0180910E0147
:1004800090910F01A0911001B091110180931D0175
:1004900090931E01A0931F01B0932001DF91CF9193
:1004A000FF91EF91BF91AF919F918F917F916F914C
:1004B0005F914F913F912F910F9000925B000F90B1
:1004C00000925F000F901F901895CF93DF93CDB7E8
:1004D000DEB78091220190912301CC01A0E0B0E031
:1004E00040E050E026E030E0841B950B28173907E8
:1004F00008F4C6C18A5B9F4FFC010C94B60481E0EE
:10050000809321011092250185E0809324010E94AF
:100510006E0081E00E941D0185E30E94C20081E01F
:1005200090E09093230180932201AFC180E290E09C
:10053000FC018081882F90E081709927009709F055
:1005400045C0809121018230A1F4809124018F5F08
:1005500080932401809124018A30F0F40E946E007F
:1005600081E00E941D0180912401805D0E94C200F3
:1005700013C080912401882329F0809124018150A7
:10058000809324010E946E0081E00E941D018091F1
:100590002401805D0E94C20080912401893078F09E
:1005A0008091120190911301BC0181E00E94F10041
:1005B00085E090E0909323018093220144C082E083
:1005C00090E090932301809322015FC180E290E04C
:1005D000FC018081882F90E081709927009799F124
:1005E00080912101843049F4809121018695809386
:1005F000210181E0809325011FC08091210182307B
:1006000081F480912501882331F080912101869524
:100610008093210111C080912101880F80932101D5
:100620000BC080912101813039F480912101880F24
:10063000809321011092250181E090E090932301A5
:100640008093220122C121C180E290E0FC018081DF
:10065000882F90E081709927009739F083E090E02F
:10066000909323018093220111C080E290E0FC016D
:100670008081882F90E081709927009739F482E07B
:1006800090E09093230180932201FFC0FEC080E29E
:1006900090E0FC018081882F90E08170992700977D
:1006A00061F481E0809321011092250184E090E0C3
:1006B000909323018093220111C080E290E0FC011D
:1006C0008081882F90E081709927009739F083E02E
:1006D00090E09093230180932201D7C0D6C080E29E
:1006E00090E0FC018081882F90E08170992700972D
:1006F00099F180912101843049F4809121018695FE
:100700008093210181E0809325011FC08091210108
:10071000823081F480912501882331F0809121017C
:1007200086958093210111C080912101880F8093CB
:1007300021010BC080912101813039F48091210188
:10074000880F809321011092250181E090E0909321
:100750002301809322013DC080E290E0FC01808172
:10076000882F90E081709927009799F58091210159
:10077000843049F48091210186958093210181E0A4
:10078000809325011FC080912101823081F48091E6
:100790002501882331F080912101869580932101E4
:1007A00011C080912101880F809321010BC080919D
:1007B0002101813039F480912101880F809321013A
:1007C0001092250184E090E0909323018093220110
:1007D0005CC05BC080E290E0FC018081882F90E0EB
:1007E00081709927009739F086E090E0909323017B
:1007F0008093220111C080E290E0FC018081882F6B
:1008000090E081709927009739F485E090E090930B
:1008100023018093220139C038C080E290E0FC01BE
:100820008081882F90E0817099270097B9F485E046
:100830008093240181E0809321010E946E0081E079
:100840000E941D0180912401805D0E94C20084E00D
:1008500090E0909323018093220111C080E290E008
:10086000FC018081882F90E081709927009739F0F2
:1008700086E090E0909323018093220106C005C09A
:100880001092230110922201000080912201909188
:1008900023018330910511F18430910538F48130C2
:1008A000910571F082309105D9F01FC08530910516
:1008B000C9F08530910558F086309105A9F015C032
:1008C00085E290E020912101FC0120830EC085E2A9
:1008D00090E020912101FC01208307C0000005C0A9
:1008E000000003C0000001C00000DF91CF91089517
:1008F000CF93DF93CDB7DEB781E290E0FC011082A9
:1009000082E290E02FEFFC01208384E290E02FEF61
:10091000FC01208385E290E0FC01108287E290E0F8
:100920002FEFFC01208388E290E0FC0110828AE234
:1009300090E02FEFFC0120838BE290E0FC0110821D
:100940006CE271E080E090E00E948C010E94B901AD
:10095000109221010E9478000E946502000080919F
:100960001C018823E1F310921C01F6CFEE0FFF1F4C
:100970000024001C0BBE0790F691E02D0994F8941A
:02098000FFCFA7
:1009820000000002000000006301000000000100FE
:0C0992000000140157494E4E455221212F
:00000001FF
